{
  "_format": "hh-sol-artifact-1",
  "contractName": "CyperTemple",
  "sourceName": "contracts/CyperTemple.sol",
  "abi": [
    {
      "inputs": [],
      "stateMutability": "nonpayable",
      "type": "constructor"
    },
    {
      "anonymous": false,
      "inputs": [
        {
          "indexed": false,
          "internalType": "string",
          "name": "content",
          "type": "string"
        },
        {
          "indexed": false,
          "internalType": "string",
          "name": "nickname",
          "type": "string"
        },
        {
          "indexed": false,
          "internalType": "uint256",
          "name": "timestamp",
          "type": "uint256"
        },
        {
          "indexed": false,
          "internalType": "address",
          "name": "sender",
          "type": "address"
        },
        {
          "indexed": false,
          "internalType": "uint16",
          "name": "godId",
          "type": "uint16"
        }
      ],
      "name": "NewMsgSubmit",
      "type": "event"
    },
    {
      "inputs": [
        {
          "internalType": "uint256",
          "name": "",
          "type": "uint256"
        }
      ],
      "name": "GodsList",
      "outputs": [
        {
          "internalType": "string",
          "name": "name",
          "type": "string"
        },
        {
          "internalType": "string",
          "name": "desc",
          "type": "string"
        },
        {
          "internalType": "string",
          "name": "imgUrl",
          "type": "string"
        },
        {
          "internalType": "string",
          "name": "subDesc",
          "type": "string"
        },
        {
          "internalType": "uint16",
          "name": "godNum",
          "type": "uint16"
        },
        {
          "internalType": "uint128",
          "name": "prayerCount",
          "type": "uint128"
        }
      ],
      "stateMutability": "view",
      "type": "function"
    },
    {
      "inputs": [
        {
          "internalType": "uint16",
          "name": "",
          "type": "uint16"
        },
        {
          "internalType": "uint256",
          "name": "",
          "type": "uint256"
        }
      ],
      "name": "PrayerMap",
      "outputs": [
        {
          "internalType": "string",
          "name": "content",
          "type": "string"
        },
        {
          "internalType": "address",
          "name": "sender",
          "type": "address"
        },
        {
          "internalType": "string",
          "name": "nickname",
          "type": "string"
        },
        {
          "internalType": "uint256",
          "name": "time",
          "type": "uint256"
        },
        {
          "internalType": "uint16",
          "name": "godId",
          "type": "uint16"
        }
      ],
      "stateMutability": "view",
      "type": "function"
    },
    {
      "inputs": [
        {
          "internalType": "string",
          "name": "godName",
          "type": "string"
        },
        {
          "internalType": "string",
          "name": "desc",
          "type": "string"
        },
        {
          "internalType": "string",
          "name": "imgUrl",
          "type": "string"
        },
        {
          "internalType": "string",
          "name": "subDesc",
          "type": "string"
        }
      ],
      "name": "createGod",
      "outputs": [],
      "stateMutability": "nonpayable",
      "type": "function"
    },
    {
      "inputs": [
        {
          "internalType": "uint16",
          "name": "godId",
          "type": "uint16"
        }
      ],
      "name": "getPrayerList",
      "outputs": [
        {
          "components": [
            {
              "internalType": "string",
              "name": "content",
              "type": "string"
            },
            {
              "internalType": "address",
              "name": "sender",
              "type": "address"
            },
            {
              "internalType": "string",
              "name": "nickname",
              "type": "string"
            },
            {
              "internalType": "uint256",
              "name": "time",
              "type": "uint256"
            },
            {
              "internalType": "uint16",
              "name": "godId",
              "type": "uint16"
            }
          ],
          "internalType": "struct CyperTemple.Prayer[]",
          "name": "",
          "type": "tuple[]"
        }
      ],
      "stateMutability": "view",
      "type": "function"
    },
    {
      "inputs": [],
      "name": "godList",
      "outputs": [
        {
          "components": [
            {
              "internalType": "string",
              "name": "name",
              "type": "string"
            },
            {
              "internalType": "string",
              "name": "desc",
              "type": "string"
            },
            {
              "internalType": "string",
              "name": "imgUrl",
              "type": "string"
            },
            {
              "internalType": "string",
              "name": "subDesc",
              "type": "string"
            },
            {
              "internalType": "uint16",
              "name": "godNum",
              "type": "uint16"
            },
            {
              "internalType": "uint128",
              "name": "prayerCount",
              "type": "uint128"
            }
          ],
          "internalType": "struct CyperTemple.God[]",
          "name": "",
          "type": "tuple[]"
        }
      ],
      "stateMutability": "view",
      "type": "function"
    },
    {
      "inputs": [
        {
          "internalType": "string",
          "name": "content",
          "type": "string"
        },
        {
          "internalType": "string",
          "name": "nickname",
          "type": "string"
        },
        {
          "internalType": "uint16",
          "name": "godId",
          "type": "uint16"
        }
      ],
      "name": "submit",
      "outputs": [],
      "stateMutability": "nonpayable",
      "type": "function"
    }
  ],
  "bytecode": "0x60806040523480156200001157600080fd5b5060016040518060c001604052806040518060400160405280600e81526020017f47617574616d6120427564646861000000000000000000000000000000000000815250815260200160405180606001604052806032815260200162002c946032913981526020016040518060400160405280600181526020017f3100000000000000000000000000000000000000000000000000000000000000815250815260200160405180606001604052806025815260200162002c40602591398152602001600061ffff16815260200160006fffffffffffffffffffffffffffffffff16815250908060018154018082558091505060019003906000526020600020906005020160009091909190915060008201518160000190805190602001906200013c92919062000fe9565b5060208201518160010190805190602001906200015b92919062000fe9565b5060408201518160020190805190602001906200017a92919062000fe9565b5060608201518160030190805190602001906200019992919062000fe9565b5060808201518160040160006101000a81548161ffff021916908361ffff16021790555060a08201518160040160026101000a8154816fffffffffffffffffffffffffffffffff02191690836fffffffffffffffffffffffffffffffff160217905550505060016040518060c001604052806040518060400160405280601981526020017f53616d616e746162686164726120426f64686973617474766100000000000000815250815260200160405180606001604052806033815260200162002bbe6033913981526020016040518060400160405280600181526020017f3100000000000000000000000000000000000000000000000000000000000000815250815260200160405180606001604052806028815260200162002d44602891398152602001600161ffff16815260200160006fffffffffffffffffffffffffffffffff16815250908060018154018082558091505060019003906000526020600020906005020160009091909190915060008201518160000190805190602001906200032892919062000fe9565b5060208201518160010190805190602001906200034792919062000fe9565b5060408201518160020190805190602001906200036692919062000fe9565b5060608201518160030190805190602001906200038592919062000fe9565b5060808201518160040160006101000a81548161ffff021916908361ffff16021790555060a08201518160040160026101000a8154816fffffffffffffffffffffffffffffffff02191690836fffffffffffffffffffffffffffffffff160217905550505060016040518060c001604052806040518060400160405280601581526020017f4d616e6a757368726920426f646869736174747661000000000000000000000081525081526020016040518060600160405280602f815260200162002c65602f913981526020016040518060400160405280600181526020017f3100000000000000000000000000000000000000000000000000000000000000815250815260200160405180606001604052806022815260200162002b9c602291398152602001600261ffff16815260200160006fffffffffffffffffffffffffffffffff16815250908060018154018082558091505060019003906000526020600020906005020160009091909190915060008201518160000190805190602001906200051492919062000fe9565b5060208201518160010190805190602001906200053392919062000fe9565b5060408201518160020190805190602001906200055292919062000fe9565b5060608201518160030190805190602001906200057192919062000fe9565b5060808201518160040160006101000a81548161ffff021916908361ffff16021790555060a08201518160040160026101000a8154816fffffffffffffffffffffffffffffffff02191690836fffffffffffffffffffffffffffffffff160217905550505060016040518060c001604052806040518060400160405280600c81526020017f4a6573757320436872697374000000000000000000000000000000000000000081525081526020016040518060600160405280602d815260200162002d17602d913981526020016040518060400160405280600181526020017f3100000000000000000000000000000000000000000000000000000000000000815250815260200160405180606001604052806026815260200162002cc6602691398152602001600361ffff16815260200160006fffffffffffffffffffffffffffffffff16815250908060018154018082558091505060019003906000526020600020906005020160009091909190915060008201518160000190805190602001906200070092919062000fe9565b5060208201518160010190805190602001906200071f92919062000fe9565b5060408201518160020190805190602001906200073e92919062000fe9565b5060608201518160030190805190602001906200075d92919062000fe9565b5060808201518160040160006101000a81548161ffff021916908361ffff16021790555060a08201518160040160026101000a8154816fffffffffffffffffffffffffffffffff02191690836fffffffffffffffffffffffffffffffff160217905550505060016040518060c001604052806040518060400160405280600581526020017f4163616c6100000000000000000000000000000000000000000000000000000081525081526020016040518060600160405280602d815260200162002c13602d913981526020016040518060400160405280600181526020017f3100000000000000000000000000000000000000000000000000000000000000815250815260200160405180606001604052806022815260200162002bf1602291398152602001600461ffff16815260200160006fffffffffffffffffffffffffffffffff1681525090806001815401808255809150506001900390600052602060002090600502016000909190919091506000820151816000019080519060200190620008ec92919062000fe9565b5060208201518160010190805190602001906200090b92919062000fe9565b5060408201518160020190805190602001906200092a92919062000fe9565b5060608201518160030190805190602001906200094992919062000fe9565b5060808201518160040160006101000a81548161ffff021916908361ffff16021790555060a08201518160040160026101000a8154816fffffffffffffffffffffffffffffffff02191690836fffffffffffffffffffffffffffffffff160217905550505060016040518060c001604052806040518060400160405280600781526020017f437468756c68750000000000000000000000000000000000000000000000000081525081526020016040518060600160405280602b815260200162002cec602b913981526020016040518060400160405280600181526020017f310000000000000000000000000000000000000000000000000000000000000081525081526020016040518060400160405280601e81526020017f4b6e6f77206368616f732c20656d6272616365207468652061627973732e00008152508152602001600561ffff16815260200160006fffffffffffffffffffffffffffffffff168152509080600181540180825580915050600190039060005260206000209060050201600090919091909150600082015181600001908051906020019062000af492919062000fe9565b50602082015181600101908051906020019062000b1392919062000fe9565b50604082015181600201908051906020019062000b3292919062000fe9565b50606082015181600301908051906020019062000b5192919062000fe9565b5060808201518160040160006101000a81548161ffff021916908361ffff16021790555060a08201518160040160026101000a8154816fffffffffffffffffffffffffffffffff02191690836fffffffffffffffffffffffffffffffff160217905550505060016040518060c001604052806040518060400160405280600c81526020017f4e7961726c6174686f746570000000000000000000000000000000000000000081525081526020016040518060600160405280602d815260200162002b6f602d913981526020016040518060400160405280600181526020017f3100000000000000000000000000000000000000000000000000000000000000815250815260200160405180606001604052806023815260200162002b4c602391398152602001600661ffff16815260200160006fffffffffffffffffffffffffffffffff168152509080600181540180825580915050600190039060005260206000209060050201600090919091909150600082015181600001908051906020019062000ce092919062000fe9565b50602082015181600101908051906020019062000cff92919062000fe9565b50604082015181600201908051906020019062000d1e92919062000fe9565b50606082015181600301908051906020019062000d3d92919062000fe9565b5060808201518160040160006101000a81548161ffff021916908361ffff16021790555060a08201518160040160026101000a8154816fffffffffffffffffffffffffffffffff02191690836fffffffffffffffffffffffffffffffff160217905550505060016040518060c001604052806040518060400160405280600781526020017f546865204361740000000000000000000000000000000000000000000000000081525081526020016040518060400160405280600881526020017f437574652043617400000000000000000000000000000000000000000000000081525081526020016040518060400160405280600181526020017f310000000000000000000000000000000000000000000000000000000000000081525081526020016040518060400160405280600481526020017f4d656f77000000000000000000000000000000000000000000000000000000008152508152602001600761ffff16815260200160006fffffffffffffffffffffffffffffffff168152509080600181540180825580915050600190039060005260206000209060050201600090919091909150600082015181600001908051906020019062000f0492919062000fe9565b50602082015181600101908051906020019062000f2392919062000fe9565b50604082015181600201908051906020019062000f4292919062000fe9565b50606082015181600301908051906020019062000f6192919062000fe9565b5060808201518160040160006101000a81548161ffff021916908361ffff16021790555060a08201518160040160026101000a8154816fffffffffffffffffffffffffffffffff02191690836fffffffffffffffffffffffffffffffff160217905550505060076000806101000a81548161ffff021916908361ffff160217905550620010fe565b82805462000ff79062001099565b90600052602060002090601f0160209004810192826200101b576000855562001067565b82601f106200103657805160ff191683800117855562001067565b8280016001018555821562001067579182015b828111156200106657825182559160200191906001019062001049565b5b5090506200107691906200107a565b5090565b5b80821115620010955760008160009055506001016200107b565b5090565b60006002820490506001821680620010b257607f821691505b60208210811415620010c957620010c8620010cf565b5b50919050565b7f4e487b7100000000000000000000000000000000000000000000000000000000600052602260045260246000fd5b611a3e806200110e6000396000f3fe608060405234801561001057600080fd5b50600436106100615760003560e01c806220afd7146100665780631b4297df1461009a5780632771d4ca146100b657806353f5423e146100e657806381fe5f8d14610104578063db3c54ac14610139575b600080fd5b610080600480360381019061007b919061115f565b610155565b604051610091959493929190611585565b60405180910390f35b6100b460048036038101906100af91906110b7565b6102e6565b005b6100d060048036038101906100cb9190611136565b610566565b6040516100dd9190611563565b60405180910390f35b6100ee610784565b6040516100fb9190611541565b60405180910390f35b61011e6004803603810190610119919061119b565b610a95565b604051610130969594939291906115e6565b60405180910390f35b610153600480360381019061014e9190610ff4565b610d2b565b005b6002602052816000526040600020818154811061017157600080fd5b9060005260206000209060050201600091509150508060000180546101959061190a565b80601f01602080910402602001604051908101604052809291908181526020018280546101c19061190a565b801561020e5780601f106101e35761010080835404028352916020019161020e565b820191906000526020600020905b8154815290600101906020018083116101f157829003601f168201915b5050505050908060010160009054906101000a900473ffffffffffffffffffffffffffffffffffffffff16908060020180546102499061190a565b80601f01602080910402602001604051908101604052809291908181526020018280546102759061190a565b80156102c25780601f10610297576101008083540402835291602001916102c2565b820191906000526020600020905b8154815290600101906020018083116102a557829003601f168201915b5050505050908060030154908060040160009054906101000a900461ffff16905085565b600083511180156102f8575060008251115b610337576040517f08c379a000000000000000000000000000000000000000000000000000000000815260040161032e906116c4565b60405180910390fd5b60006040518060a001604052808581526020013373ffffffffffffffffffffffffffffffffffffffff1681526020018481526020014281526020018361ffff168152509050600260008361ffff1661ffff16815260200190815260200160002081908060018154018082558091505060019003906000526020600020906005020160009091909190915060008201518160000190805190602001906103dd929190610ebf565b5060208201518160010160006101000a81548173ffffffffffffffffffffffffffffffffffffffff021916908373ffffffffffffffffffffffffffffffffffffffff1602179055506040820151816002019080519060200190610441929190610ebf565b506060820151816003015560808201518160040160006101000a81548161ffff021916908361ffff16021790555050506001808361ffff16815481106104b0577f4e487b7100000000000000000000000000000000000000000000000000000000600052603260045260246000fd5b906000526020600020906005020160040160028282829054906101000a90046fffffffffffffffffffffffffffffffff166104eb91906117e4565b92506101000a8154816fffffffffffffffffffffffffffffffff02191690836fffffffffffffffffffffffffffffffff1602179055507fbf07e81c427b1a5d30637de4f56d4fe67e740ca7316d0aa77ece5d5fb9600c938484423386604051610558959493929190611663565b60405180910390a150505050565b6060600260008361ffff1661ffff168152602001908152602001600020805480602002602001604051908101604052809291908181526020016000905b8282101561077957838290600052602060002090600502016040518060a00160405290816000820180546105d69061190a565b80601f01602080910402602001604051908101604052809291908181526020018280546106029061190a565b801561064f5780601f106106245761010080835404028352916020019161064f565b820191906000526020600020905b81548152906001019060200180831161063257829003601f168201915b505050505081526020016001820160009054906101000a900473ffffffffffffffffffffffffffffffffffffffff1673ffffffffffffffffffffffffffffffffffffffff1673ffffffffffffffffffffffffffffffffffffffff1681526020016002820180546106be9061190a565b80601f01602080910402602001604051908101604052809291908181526020018280546106ea9061190a565b80156107375780601f1061070c57610100808354040283529160200191610737565b820191906000526020600020905b81548152906001019060200180831161071a57829003601f168201915b50505050508152602001600382015481526020016004820160009054906101000a900461ffff1661ffff1661ffff1681525050815260200190600101906105a3565b505050509050919050565b60606001805480602002602001604051908101604052809291908181526020016000905b82821015610a8c57838290600052602060002090600502016040518060c00160405290816000820180546107db9061190a565b80601f01602080910402602001604051908101604052809291908181526020018280546108079061190a565b80156108545780601f1061082957610100808354040283529160200191610854565b820191906000526020600020905b81548152906001019060200180831161083757829003601f168201915b5050505050815260200160018201805461086d9061190a565b80601f01602080910402602001604051908101604052809291908181526020018280546108999061190a565b80156108e65780601f106108bb576101008083540402835291602001916108e6565b820191906000526020600020905b8154815290600101906020018083116108c957829003601f168201915b505050505081526020016002820180546108ff9061190a565b80601f016020809104026020016040519081016040528092919081815260200182805461092b9061190a565b80156109785780601f1061094d57610100808354040283529160200191610978565b820191906000526020600020905b81548152906001019060200180831161095b57829003601f168201915b505050505081526020016003820180546109919061190a565b80601f01602080910402602001604051908101604052809291908181526020018280546109bd9061190a565b8015610a0a5780601f106109df57610100808354040283529160200191610a0a565b820191906000526020600020905b8154815290600101906020018083116109ed57829003601f168201915b505050505081526020016004820160009054906101000a900461ffff1661ffff1661ffff1681526020016004820160029054906101000a90046fffffffffffffffffffffffffffffffff166fffffffffffffffffffffffffffffffff166fffffffffffffffffffffffffffffffff1681525050815260200190600101906107a8565b50505050905090565b60018181548110610aa557600080fd5b9060005260206000209060050201600091509050806000018054610ac89061190a565b80601f0160208091040260200160405190810160405280929190818152602001828054610af49061190a565b8015610b415780601f10610b1657610100808354040283529160200191610b41565b820191906000526020600020905b815481529060010190602001808311610b2457829003601f168201915b505050505090806001018054610b569061190a565b80601f0160208091040260200160405190810160405280929190818152602001828054610b829061190a565b8015610bcf5780601f10610ba457610100808354040283529160200191610bcf565b820191906000526020600020905b815481529060010190602001808311610bb257829003601f168201915b505050505090806002018054610be49061190a565b80601f0160208091040260200160405190810160405280929190818152602001828054610c109061190a565b8015610c5d5780601f10610c3257610100808354040283529160200191610c5d565b820191906000526020600020905b815481529060010190602001808311610c4057829003601f168201915b505050505090806003018054610c729061190a565b80601f0160208091040260200160405190810160405280929190818152602001828054610c9e9061190a565b8015610ceb5780601f10610cc057610100808354040283529160200191610ceb565b820191906000526020600020905b815481529060010190602001808311610cce57829003601f168201915b5050505050908060040160009054906101000a900461ffff16908060040160029054906101000a90046fffffffffffffffffffffffffffffffff16905086565b60016000808282829054906101000a900461ffff16610d4a919061182a565b92506101000a81548161ffff021916908361ffff16021790555060016040518060c0016040528086815260200185815260200184815260200183815260200160008054906101000a900461ffff1661ffff16815260200160006fffffffffffffffffffffffffffffffff1681525090806001815401808255809150506001900390600052602060002090600502016000909190919091506000820151816000019080519060200190610dfd929190610ebf565b506020820151816001019080519060200190610e1a929190610ebf565b506040820151816002019080519060200190610e37929190610ebf565b506060820151816003019080519060200190610e54929190610ebf565b5060808201518160040160006101000a81548161ffff021916908361ffff16021790555060a08201518160040160026101000a8154816fffffffffffffffffffffffffffffffff02191690836fffffffffffffffffffffffffffffffff160217905550505050505050565b828054610ecb9061190a565b90600052602060002090601f016020900481019282610eed5760008555610f34565b82601f10610f0657805160ff1916838001178555610f34565b82800160010185558215610f34579182015b82811115610f33578251825591602001919060010190610f18565b5b509050610f419190610f45565b5090565b5b80821115610f5e576000816000905550600101610f46565b5090565b6000610f75610f7084611715565b6116e4565b905082815260208101848484011115610f8d57600080fd5b610f988482856118c8565b509392505050565b600082601f830112610fb157600080fd5b8135610fc1848260208601610f62565b91505092915050565b600081359050610fd9816119da565b92915050565b600081359050610fee816119f1565b92915050565b6000806000806080858703121561100a57600080fd5b600085013567ffffffffffffffff81111561102457600080fd5b61103087828801610fa0565b945050602085013567ffffffffffffffff81111561104d57600080fd5b61105987828801610fa0565b935050604085013567ffffffffffffffff81111561107657600080fd5b61108287828801610fa0565b925050606085013567ffffffffffffffff81111561109f57600080fd5b6110ab87828801610fa0565b91505092959194509250565b6000806000606084860312156110cc57600080fd5b600084013567ffffffffffffffff8111156110e657600080fd5b6110f286828701610fa0565b935050602084013567ffffffffffffffff81111561110f57600080fd5b61111b86828701610fa0565b925050604061112c86828701610fca565b9150509250925092565b60006020828403121561114857600080fd5b600061115684828501610fca565b91505092915050565b6000806040838503121561117257600080fd5b600061118085828601610fca565b925050602061119185828601610fdf565b9150509250929050565b6000602082840312156111ad57600080fd5b60006111bb84828501610fdf565b91505092915050565b60006111d083836113cc565b905092915050565b60006111e4838361146a565b905092915050565b6111f581611862565b82525050565b61120481611862565b82525050565b600061121582611765565b61121f81856117a0565b93508360208202850161123185611745565b8060005b8581101561126d578484038952815161124e85826111c4565b945061125983611786565b925060208a01995050600181019050611235565b50829750879550505050505092915050565b600061128a82611770565b61129481856117b1565b9350836020820285016112a685611755565b8060005b858110156112e257848403895281516112c385826111d8565b94506112ce83611793565b925060208a019950506001810190506112aa565b50829750879550505050505092915050565b60006112ff8261177b565b61130981856117c2565b93506113198185602086016118d7565b611322816119c9565b840191505092915050565b60006113388261177b565b61134281856117d3565b93506113528185602086016118d7565b61135b816119c9565b840191505092915050565b60006113736024836117d3565b91507f43616e206e6f7420696e70757420656d7074792074657874206f72206e69636b60008301527f6e616d65000000000000000000000000000000000000000000000000000000006020830152604082019050919050565b600060c08301600083015184820360008601526113e982826112f4565b9150506020830151848203602086015261140382826112f4565b9150506040830151848203604086015261141d82826112f4565b9150506060830151848203606086015261143782826112f4565b915050608083015161144c6080860182611505565b5060a083015161145f60a08601826114e7565b508091505092915050565b600060a083016000830151848203600086015261148782826112f4565b915050602083015161149c60208601826111ec565b50604083015184820360408601526114b482826112f4565b91505060608301516114c96060860182611523565b5060808301516114dc6080860182611505565b508091505092915050565b6114f081611874565b82525050565b6114ff81611874565b82525050565b61150e81611890565b82525050565b61151d81611890565b82525050565b61152c816118be565b82525050565b61153b816118be565b82525050565b6000602082019050818103600083015261155b818461120a565b905092915050565b6000602082019050818103600083015261157d818461127f565b905092915050565b600060a082019050818103600083015261159f818861132d565b90506115ae60208301876111fb565b81810360408301526115c0818661132d565b90506115cf6060830185611532565b6115dc6080830184611514565b9695505050505050565b600060c0820190508181036000830152611600818961132d565b90508181036020830152611614818861132d565b90508181036040830152611628818761132d565b9050818103606083015261163c818661132d565b905061164b6080830185611514565b61165860a08301846114f6565b979650505050505050565b600060a082019050818103600083015261167d818861132d565b90508181036020830152611691818761132d565b90506116a06040830186611532565b6116ad60608301856111fb565b6116ba6080830184611514565b9695505050505050565b600060208201905081810360008301526116dd81611366565b9050919050565b6000604051905081810181811067ffffffffffffffff8211171561170b5761170a61199a565b5b8060405250919050565b600067ffffffffffffffff8211156117305761172f61199a565b5b601f19601f8301169050602081019050919050565b6000819050602082019050919050565b6000819050602082019050919050565b600081519050919050565b600081519050919050565b600081519050919050565b6000602082019050919050565b6000602082019050919050565b600082825260208201905092915050565b600082825260208201905092915050565b600082825260208201905092915050565b600082825260208201905092915050565b60006117ef82611874565b91506117fa83611874565b9250826fffffffffffffffffffffffffffffffff0382111561181f5761181e61193c565b5b828201905092915050565b600061183582611890565b915061184083611890565b92508261ffff038211156118575761185661193c565b5b828201905092915050565b600061186d8261189e565b9050919050565b60006fffffffffffffffffffffffffffffffff82169050919050565b600061ffff82169050919050565b600073ffffffffffffffffffffffffffffffffffffffff82169050919050565b6000819050919050565b82818337600083830152505050565b60005b838110156118f55780820151818401526020810190506118da565b83811115611904576000848401525b50505050565b6000600282049050600182168061192257607f821691505b602082108114156119365761193561196b565b5b50919050565b7f4e487b7100000000000000000000000000000000000000000000000000000000600052601160045260246000fd5b7f4e487b7100000000000000000000000000000000000000000000000000000000600052602260045260246000fd5b7f4e487b7100000000000000000000000000000000000000000000000000000000600052604160045260246000fd5b6000601f19601f8301169050919050565b6119e381611890565b81146119ee57600080fd5b50565b6119fa816118be565b8114611a0557600080fd5b5056fea2646970667358221220ac2d605ce26ed258377dd2ef42fefb17b7ff4fd8b4ecc8fcad0e47cf93bb72ad64736f6c6343000800003348656564206d792077686973706572732c20656d627261636520696e73616e6974792e437261776c696e67204368616f732c2077686973706572696e67206d61646e65737320696e20736861646f77735368617270656e206d696e642c206375742064656c7573696f6e2c206177616b656e426f646869736174747661206f66207661737420766f77732c20737072656164696e6720626f756e646c657373206d6572697446656172206d7920666c616d65732c20636f6e71756572206576696c2c2072697365466965727920576973646f6d204b696e672c206775617264696e6720446861726d6120776974682077726174685365656b2074727574682c206162616e646f6e2064656c7573696f6e2c206177616b656e2e576973646f6d2073776f72642d6265617265722c20736c6963696e67207468726f7567682069676e6f72616e63652e456e6c69676874656e6564204275646468612c2067756964696e6720736f756c7320746f206e697276616e612070656163654c6f766520616c6c2c20747275737420476f642c206761696e20657465726e616c206c6966654772656174204f6c64204f6e652c20647265616d696e6720696e2052606c7965686073206465707468732e536f6e206f6620476f642c2072656465656d696e6720736f756c73207769746820646976696e65206c6f76652e566f772067726561746c792c207361766520616c6c2c20726561636820427564646861686f6f642e",
  "linkReferences": {},
  "deployedLinkReferences": {}
}