{
  "_format": "hh-sol-artifact-1",
  "contractName": "CyperTemple",
  "sourceName": "contracts/CyperTemple.sol",
  "abi": [
    {
      "inputs": [],
      "stateMutability": "nonpayable",
      "type": "constructor"
    },
    {
      "anonymous": false,
      "inputs": [
        {
          "indexed": false,
          "internalType": "string",
          "name": "content",
          "type": "string"
        },
        {
          "indexed": false,
          "internalType": "string",
          "name": "nickname",
          "type": "string"
        },
        {
          "indexed": false,
          "internalType": "address",
          "name": "sender",
          "type": "address"
        },
        {
          "indexed": false,
          "internalType": "uint16",
          "name": "godId",
          "type": "uint16"
        }
      ],
      "name": "NewMsgSubmit",
      "type": "event"
    },
    {
      "inputs": [
        {
          "internalType": "uint256",
          "name": "",
          "type": "uint256"
        }
      ],
      "name": "GodsList",
      "outputs": [
        {
          "internalType": "string",
          "name": "name",
          "type": "string"
        },
        {
          "internalType": "string",
          "name": "desc",
          "type": "string"
        },
        {
          "internalType": "string",
          "name": "imgUrl",
          "type": "string"
        },
        {
          "internalType": "string",
          "name": "subDesc",
          "type": "string"
        },
        {
          "internalType": "uint16",
          "name": "godNum",
          "type": "uint16"
        },
        {
          "internalType": "uint128",
          "name": "prayerCount",
          "type": "uint128"
        }
      ],
      "stateMutability": "view",
      "type": "function"
    },
    {
      "inputs": [
        {
          "internalType": "uint16",
          "name": "",
          "type": "uint16"
        },
        {
          "internalType": "uint256",
          "name": "",
          "type": "uint256"
        }
      ],
      "name": "PrayerMap",
      "outputs": [
        {
          "internalType": "string",
          "name": "content",
          "type": "string"
        },
        {
          "internalType": "address",
          "name": "sender",
          "type": "address"
        },
        {
          "internalType": "string",
          "name": "nickname",
          "type": "string"
        },
        {
          "internalType": "uint16",
          "name": "godId",
          "type": "uint16"
        }
      ],
      "stateMutability": "view",
      "type": "function"
    },
    {
      "inputs": [
        {
          "internalType": "string",
          "name": "godName",
          "type": "string"
        },
        {
          "internalType": "string",
          "name": "desc",
          "type": "string"
        },
        {
          "internalType": "string",
          "name": "imgUrl",
          "type": "string"
        },
        {
          "internalType": "string",
          "name": "subDesc",
          "type": "string"
        }
      ],
      "name": "createGod",
      "outputs": [],
      "stateMutability": "nonpayable",
      "type": "function"
    },
    {
      "inputs": [
        {
          "internalType": "uint16",
          "name": "godId",
          "type": "uint16"
        }
      ],
      "name": "getPrayerList",
      "outputs": [
        {
          "components": [
            {
              "internalType": "string",
              "name": "content",
              "type": "string"
            },
            {
              "internalType": "address",
              "name": "sender",
              "type": "address"
            },
            {
              "internalType": "string",
              "name": "nickname",
              "type": "string"
            },
            {
              "internalType": "uint16",
              "name": "godId",
              "type": "uint16"
            }
          ],
          "internalType": "struct CyperTemple.Prayer[]",
          "name": "",
          "type": "tuple[]"
        }
      ],
      "stateMutability": "view",
      "type": "function"
    },
    {
      "inputs": [],
      "name": "godList",
      "outputs": [
        {
          "components": [
            {
              "internalType": "string",
              "name": "name",
              "type": "string"
            },
            {
              "internalType": "string",
              "name": "desc",
              "type": "string"
            },
            {
              "internalType": "string",
              "name": "imgUrl",
              "type": "string"
            },
            {
              "internalType": "string",
              "name": "subDesc",
              "type": "string"
            },
            {
              "internalType": "uint16",
              "name": "godNum",
              "type": "uint16"
            },
            {
              "internalType": "uint128",
              "name": "prayerCount",
              "type": "uint128"
            }
          ],
          "internalType": "struct CyperTemple.God[]",
          "name": "",
          "type": "tuple[]"
        }
      ],
      "stateMutability": "view",
      "type": "function"
    },
    {
      "inputs": [
        {
          "internalType": "string",
          "name": "content",
          "type": "string"
        },
        {
          "internalType": "string",
          "name": "nickname",
          "type": "string"
        },
        {
          "internalType": "uint16",
          "name": "godId",
          "type": "uint16"
        }
      ],
      "name": "submit",
      "outputs": [],
      "stateMutability": "nonpayable",
      "type": "function"
    }
  ],
  "bytecode": "0x60806040523480156200001157600080fd5b5060006040518060c001604052806040518060400160405280600e81526020017f47617574616d61204275646468610000000000000000000000000000000000008152508152602001604051806060016040528060328152602001620025426032913981526020016040518060400160405280600181526020017f31000000000000000000000000000000000000000000000000000000000000008152508152602001604051806060016040528060258152602001620024ee602591398152602001600061ffff16815260200160006fffffffffffffffffffffffffffffffff16815250908060018154018082558091505060019003906000526020600020906005020160009091909190915060008201518160000190805190602001906200013c929190620009d0565b5060208201518160010190805190602001906200015b929190620009d0565b5060408201518160020190805190602001906200017a929190620009d0565b50606082015181600301908051906020019062000199929190620009d0565b5060808201518160040160006101000a81548161ffff021916908361ffff16021790555060a08201518160040160026101000a8154816fffffffffffffffffffffffffffffffff02191690836fffffffffffffffffffffffffffffffff160217905550505060006040518060c001604052806040518060400160405280601981526020017f53616d616e746162686164726120426f6468697361747476610000000000000081525081526020016040518060600160405280603381526020016200246c6033913981526020016040518060400160405280600181526020017f310000000000000000000000000000000000000000000000000000000000000081525081526020016040518060600160405280602881526020016200259f602891398152602001600161ffff16815260200160006fffffffffffffffffffffffffffffffff168152509080600181540180825580915050600190039060005260206000209060050201600090919091909150600082015181600001908051906020019062000328929190620009d0565b50602082015181600101908051906020019062000347929190620009d0565b50604082015181600201908051906020019062000366929190620009d0565b50606082015181600301908051906020019062000385929190620009d0565b5060808201518160040160006101000a81548161ffff021916908361ffff16021790555060a08201518160040160026101000a8154816fffffffffffffffffffffffffffffffff02191690836fffffffffffffffffffffffffffffffff160217905550505060006040518060c001604052806040518060400160405280601581526020017f4d616e6a757368726920426f646869736174747661000000000000000000000081525081526020016040518060600160405280602f815260200162002513602f913981526020016040518060400160405280600181526020017f310000000000000000000000000000000000000000000000000000000000000081525081526020016040518060600160405280602281526020016200244a602291398152602001600261ffff16815260200160006fffffffffffffffffffffffffffffffff168152509080600181540180825580915050600190039060005260206000209060050201600090919091909150600082015181600001908051906020019062000514929190620009d0565b50602082015181600101908051906020019062000533929190620009d0565b50604082015181600201908051906020019062000552929190620009d0565b50606082015181600301908051906020019062000571929190620009d0565b5060808201518160040160006101000a81548161ffff021916908361ffff16021790555060a08201518160040160026101000a8154816fffffffffffffffffffffffffffffffff02191690836fffffffffffffffffffffffffffffffff160217905550505060006040518060c001604052806040518060400160405280600581526020017f4163616c6100000000000000000000000000000000000000000000000000000081525081526020016040518060600160405280602d8152602001620024c1602d913981526020016040518060400160405280600181526020017f310000000000000000000000000000000000000000000000000000000000000081525081526020016040518060600160405280602281526020016200249f602291398152602001600361ffff16815260200160006fffffffffffffffffffffffffffffffff168152509080600181540180825580915050600190039060005260206000209060050201600090919091909150600082015181600001908051906020019062000700929190620009d0565b5060208201518160010190805190602001906200071f929190620009d0565b5060408201518160020190805190602001906200073e929190620009d0565b5060608201518160030190805190602001906200075d929190620009d0565b5060808201518160040160006101000a81548161ffff021916908361ffff16021790555060a08201518160040160026101000a8154816fffffffffffffffffffffffffffffffff02191690836fffffffffffffffffffffffffffffffff160217905550505060006040518060c001604052806040518060400160405280600781526020017f437468756c68750000000000000000000000000000000000000000000000000081525081526020016040518060600160405280602b815260200162002574602b913981526020016040518060400160405280600181526020017f310000000000000000000000000000000000000000000000000000000000000081525081526020016040518060400160405280601e81526020017f4b6e6f77206368616f732c20656d6272616365207468652061627973732e00008152508152602001600461ffff16815260200160006fffffffffffffffffffffffffffffffff168152509080600181540180825580915050600190039060005260206000209060050201600090919091909150600082015181600001908051906020019062000908929190620009d0565b50602082015181600101908051906020019062000927929190620009d0565b50604082015181600201908051906020019062000946929190620009d0565b50606082015181600301908051906020019062000965929190620009d0565b5060808201518160040160006101000a81548161ffff021916908361ffff16021790555060a08201518160040160026101000a8154816fffffffffffffffffffffffffffffffff02191690836fffffffffffffffffffffffffffffffff160217905550505062000ae5565b828054620009de9062000a80565b90600052602060002090601f01602090048101928262000a02576000855562000a4e565b82601f1062000a1d57805160ff191683800117855562000a4e565b8280016001018555821562000a4e579182015b8281111562000a4d57825182559160200191906001019062000a30565b5b50905062000a5d919062000a61565b5090565b5b8082111562000a7c57600081600090555060010162000a62565b5090565b6000600282049050600182168062000a9957607f821691505b6020821081141562000ab05762000aaf62000ab6565b5b50919050565b7f4e487b7100000000000000000000000000000000000000000000000000000000600052602260045260246000fd5b6119558062000af56000396000f3fe608060405234801561001057600080fd5b50600436106100615760003560e01c806220afd7146100665780631b4297df146100995780632771d4ca146100b557806353f5423e146100e557806381fe5f8d14610103578063db3c54ac14610138575b600080fd5b610080600480360381019061007b91906110fb565b610154565b60405161009094939291906114f0565b60405180910390f35b6100b360048036038101906100ae9190611053565b6102df565b005b6100cf60048036038101906100ca91906110d2565b61054e565b6040516100dc91906114ce565b60405180910390f35b6100ed610762565b6040516100fa91906114ac565b60405180910390f35b61011d60048036038101906101189190611137565b610a73565b60405161012f96959493929190611596565b60405180910390f35b610152600480360381019061014d9190610f90565b610d09565b005b6001602052816000526040600020818154811061017057600080fd5b90600052602060002090600402016000915091505080600001805461019490611821565b80601f01602080910402602001604051908101604052809291908181526020018280546101c090611821565b801561020d5780601f106101e25761010080835404028352916020019161020d565b820191906000526020600020905b8154815290600101906020018083116101f057829003601f168201915b5050505050908060010160009054906101000a900473ffffffffffffffffffffffffffffffffffffffff169080600201805461024890611821565b80601f016020809104026020016040519081016040528092919081815260200182805461027490611821565b80156102c15780601f10610296576101008083540402835291602001916102c1565b820191906000526020600020905b8154815290600101906020018083116102a457829003601f168201915b5050505050908060030160009054906101000a900461ffff16905084565b600083511180156102f1575060008251115b610330576040517f08c379a000000000000000000000000000000000000000000000000000000000815260040161032790611613565b60405180910390fd5b600060405180608001604052808581526020013373ffffffffffffffffffffffffffffffffffffffff1681526020018481526020018361ffff168152509050600160008361ffff1661ffff16815260200190815260200160002081908060018154018082558091505060019003906000526020600020906004020160009091909190915060008201518160000190805190602001906103d0929190610e5b565b5060208201518160010160006101000a81548173ffffffffffffffffffffffffffffffffffffffff021916908373ffffffffffffffffffffffffffffffffffffffff1602179055506040820151816002019080519060200190610434929190610e5b565b5060608201518160030160006101000a81548161ffff021916908361ffff1602179055505050600160008361ffff168154811061049a577f4e487b7100000000000000000000000000000000000000000000000000000000600052603260045260246000fd5b906000526020600020906005020160040160028282829054906101000a90046fffffffffffffffffffffffffffffffff166104d59190611733565b92506101000a8154816fffffffffffffffffffffffffffffffff02191690836fffffffffffffffffffffffffffffffff1602179055507f9acdf6f422363b5390977207da7d9733634e755c64199f4abc405c8974344b6b848433856040516105409493929190611543565b60405180910390a150505050565b6060600160008361ffff1661ffff168152602001908152602001600020805480602002602001604051908101604052809291908181526020016000905b8282101561075757838290600052602060002090600402016040518060800160405290816000820180546105be90611821565b80601f01602080910402602001604051908101604052809291908181526020018280546105ea90611821565b80156106375780601f1061060c57610100808354040283529160200191610637565b820191906000526020600020905b81548152906001019060200180831161061a57829003601f168201915b505050505081526020016001820160009054906101000a900473ffffffffffffffffffffffffffffffffffffffff1673ffffffffffffffffffffffffffffffffffffffff1673ffffffffffffffffffffffffffffffffffffffff1681526020016002820180546106a690611821565b80601f01602080910402602001604051908101604052809291908181526020018280546106d290611821565b801561071f5780601f106106f45761010080835404028352916020019161071f565b820191906000526020600020905b81548152906001019060200180831161070257829003601f168201915b505050505081526020016003820160009054906101000a900461ffff1661ffff1661ffff16815250508152602001906001019061058b565b505050509050919050565b60606000805480602002602001604051908101604052809291908181526020016000905b82821015610a6a57838290600052602060002090600502016040518060c00160405290816000820180546107b990611821565b80601f01602080910402602001604051908101604052809291908181526020018280546107e590611821565b80156108325780601f1061080757610100808354040283529160200191610832565b820191906000526020600020905b81548152906001019060200180831161081557829003601f168201915b5050505050815260200160018201805461084b90611821565b80601f016020809104026020016040519081016040528092919081815260200182805461087790611821565b80156108c45780601f10610899576101008083540402835291602001916108c4565b820191906000526020600020905b8154815290600101906020018083116108a757829003601f168201915b505050505081526020016002820180546108dd90611821565b80601f016020809104026020016040519081016040528092919081815260200182805461090990611821565b80156109565780601f1061092b57610100808354040283529160200191610956565b820191906000526020600020905b81548152906001019060200180831161093957829003601f168201915b5050505050815260200160038201805461096f90611821565b80601f016020809104026020016040519081016040528092919081815260200182805461099b90611821565b80156109e85780601f106109bd576101008083540402835291602001916109e8565b820191906000526020600020905b8154815290600101906020018083116109cb57829003601f168201915b505050505081526020016004820160009054906101000a900461ffff1661ffff1661ffff1681526020016004820160029054906101000a90046fffffffffffffffffffffffffffffffff166fffffffffffffffffffffffffffffffff166fffffffffffffffffffffffffffffffff168152505081526020019060010190610786565b50505050905090565b60008181548110610a8357600080fd5b9060005260206000209060050201600091509050806000018054610aa690611821565b80601f0160208091040260200160405190810160405280929190818152602001828054610ad290611821565b8015610b1f5780601f10610af457610100808354040283529160200191610b1f565b820191906000526020600020905b815481529060010190602001808311610b0257829003601f168201915b505050505090806001018054610b3490611821565b80601f0160208091040260200160405190810160405280929190818152602001828054610b6090611821565b8015610bad5780601f10610b8257610100808354040283529160200191610bad565b820191906000526020600020905b815481529060010190602001808311610b9057829003601f168201915b505050505090806002018054610bc290611821565b80601f0160208091040260200160405190810160405280929190818152602001828054610bee90611821565b8015610c3b5780601f10610c1057610100808354040283529160200191610c3b565b820191906000526020600020905b815481529060010190602001808311610c1e57829003601f168201915b505050505090806003018054610c5090611821565b80601f0160208091040260200160405190810160405280929190818152602001828054610c7c90611821565b8015610cc95780601f10610c9e57610100808354040283529160200191610cc9565b820191906000526020600020905b815481529060010190602001808311610cac57829003601f168201915b5050505050908060040160009054906101000a900461ffff16908060040160029054906101000a90046fffffffffffffffffffffffffffffffff16905086565b60006040518060c0016040528086815260200185815260200184815260200183815260200160008054905061ffff16815260200160006fffffffffffffffffffffffffffffffff1681525090806001815401808255809150506001900390600052602060002090600502016000909190919091506000820151816000019080519060200190610d99929190610e5b565b506020820151816001019080519060200190610db6929190610e5b565b506040820151816002019080519060200190610dd3929190610e5b565b506060820151816003019080519060200190610df0929190610e5b565b5060808201518160040160006101000a81548161ffff021916908361ffff16021790555060a08201518160040160026101000a8154816fffffffffffffffffffffffffffffffff02191690836fffffffffffffffffffffffffffffffff160217905550505050505050565b828054610e6790611821565b90600052602060002090601f016020900481019282610e895760008555610ed0565b82601f10610ea257805160ff1916838001178555610ed0565b82800160010185558215610ed0579182015b82811115610ecf578251825591602001919060010190610eb4565b5b509050610edd9190610ee1565b5090565b5b80821115610efa576000816000905550600101610ee2565b5090565b6000610f11610f0c84611664565b611633565b905082815260208101848484011115610f2957600080fd5b610f348482856117df565b509392505050565b600082601f830112610f4d57600080fd5b8135610f5d848260208601610efe565b91505092915050565b600081359050610f75816118f1565b92915050565b600081359050610f8a81611908565b92915050565b60008060008060808587031215610fa657600080fd5b600085013567ffffffffffffffff811115610fc057600080fd5b610fcc87828801610f3c565b945050602085013567ffffffffffffffff811115610fe957600080fd5b610ff587828801610f3c565b935050604085013567ffffffffffffffff81111561101257600080fd5b61101e87828801610f3c565b925050606085013567ffffffffffffffff81111561103b57600080fd5b61104787828801610f3c565b91505092959194509250565b60008060006060848603121561106857600080fd5b600084013567ffffffffffffffff81111561108257600080fd5b61108e86828701610f3c565b935050602084013567ffffffffffffffff8111156110ab57600080fd5b6110b786828701610f3c565b92505060406110c886828701610f66565b9150509250925092565b6000602082840312156110e457600080fd5b60006110f284828501610f66565b91505092915050565b6000806040838503121561110e57600080fd5b600061111c85828601610f66565b925050602061112d85828601610f7b565b9150509250929050565b60006020828403121561114957600080fd5b600061115784828501610f7b565b91505092915050565b600061116c8383611368565b905092915050565b60006111808383611406565b905092915050565b61119181611779565b82525050565b6111a081611779565b82525050565b60006111b1826116b4565b6111bb81856116ef565b9350836020820285016111cd85611694565b8060005b8581101561120957848403895281516111ea8582611160565b94506111f5836116d5565b925060208a019950506001810190506111d1565b50829750879550505050505092915050565b6000611226826116bf565b6112308185611700565b935083602082028501611242856116a4565b8060005b8581101561127e578484038952815161125f8582611174565b945061126a836116e2565b925060208a01995050600181019050611246565b50829750879550505050505092915050565b600061129b826116ca565b6112a58185611711565b93506112b58185602086016117ee565b6112be816118e0565b840191505092915050565b60006112d4826116ca565b6112de8185611722565b93506112ee8185602086016117ee565b6112f7816118e0565b840191505092915050565b600061130f602483611722565b91507f43616e206e6f7420696e70757420656d7074792074657874206f72206e69636b60008301527f6e616d65000000000000000000000000000000000000000000000000000000006020830152604082019050919050565b600060c08301600083015184820360008601526113858282611290565b9150506020830151848203602086015261139f8282611290565b915050604083015184820360408601526113b98282611290565b915050606083015184820360608601526113d38282611290565b91505060808301516113e8608086018261148e565b5060a08301516113fb60a0860182611470565b508091505092915050565b600060808301600083015184820360008601526114238282611290565b91505060208301516114386020860182611188565b50604083015184820360408601526114508282611290565b9150506060830151611465606086018261148e565b508091505092915050565b6114798161178b565b82525050565b6114888161178b565b82525050565b611497816117a7565b82525050565b6114a6816117a7565b82525050565b600060208201905081810360008301526114c681846111a6565b905092915050565b600060208201905081810360008301526114e8818461121b565b905092915050565b6000608082019050818103600083015261150a81876112c9565b90506115196020830186611197565b818103604083015261152b81856112c9565b905061153a606083018461149d565b95945050505050565b6000608082019050818103600083015261155d81876112c9565b9050818103602083015261157181866112c9565b90506115806040830185611197565b61158d606083018461149d565b95945050505050565b600060c08201905081810360008301526115b081896112c9565b905081810360208301526115c481886112c9565b905081810360408301526115d881876112c9565b905081810360608301526115ec81866112c9565b90506115fb608083018561149d565b61160860a083018461147f565b979650505050505050565b6000602082019050818103600083015261162c81611302565b9050919050565b6000604051905081810181811067ffffffffffffffff8211171561165a576116596118b1565b5b8060405250919050565b600067ffffffffffffffff82111561167f5761167e6118b1565b5b601f19601f8301169050602081019050919050565b6000819050602082019050919050565b6000819050602082019050919050565b600081519050919050565b600081519050919050565b600081519050919050565b6000602082019050919050565b6000602082019050919050565b600082825260208201905092915050565b600082825260208201905092915050565b600082825260208201905092915050565b600082825260208201905092915050565b600061173e8261178b565b91506117498361178b565b9250826fffffffffffffffffffffffffffffffff0382111561176e5761176d611853565b5b828201905092915050565b6000611784826117b5565b9050919050565b60006fffffffffffffffffffffffffffffffff82169050919050565b600061ffff82169050919050565b600073ffffffffffffffffffffffffffffffffffffffff82169050919050565b6000819050919050565b82818337600083830152505050565b60005b8381101561180c5780820151818401526020810190506117f1565b8381111561181b576000848401525b50505050565b6000600282049050600182168061183957607f821691505b6020821081141561184d5761184c611882565b5b50919050565b7f4e487b7100000000000000000000000000000000000000000000000000000000600052601160045260246000fd5b7f4e487b7100000000000000000000000000000000000000000000000000000000600052602260045260246000fd5b7f4e487b7100000000000000000000000000000000000000000000000000000000600052604160045260246000fd5b6000601f19601f8301169050919050565b6118fa816117a7565b811461190557600080fd5b50565b611911816117d5565b811461191c57600080fd5b5056fea26469706673582212207605ef7e8a01f41e07d353d45605f27d19c72f8f413cce46ce5b8f2ee39cb1ae64736f6c634300080000335368617270656e206d696e642c206375742064656c7573696f6e2c206177616b656e426f646869736174747661206f66207661737420766f77732c20737072656164696e6720626f756e646c657373206d6572697446656172206d7920666c616d65732c20636f6e71756572206576696c2c2072697365466965727920576973646f6d204b696e672c206775617264696e6720446861726d6120776974682077726174685365656b2074727574682c206162616e646f6e2064656c7573696f6e2c206177616b656e2e576973646f6d2073776f72642d6265617265722c20736c6963696e67207468726f7567682069676e6f72616e63652e456e6c69676874656e6564204275646468612c2067756964696e6720736f756c7320746f206e697276616e612070656163654772656174204f6c64204f6e652c20647265616d696e6720696e2052606c7965686073206465707468732e566f772067726561746c792c207361766520616c6c2c20726561636820427564646861686f6f642e",
  "linkReferences": {},
  "deployedLinkReferences": {}
}